{
  "contractName": "Quiz",
  "abi": [
    {
      "constant": true,
      "inputs": [],
      "name": "question1",
      "outputs": [
        {
          "name": "",
          "type": "string"
        }
      ],
      "payable": false,
      "stateMutability": "view",
      "type": "function"
    },
    {
      "constant": true,
      "inputs": [
        {
          "name": "",
          "type": "uint256"
        }
      ],
      "name": "answers",
      "outputs": [
        {
          "name": "",
          "type": "uint256"
        }
      ],
      "payable": false,
      "stateMutability": "view",
      "type": "function"
    },
    {
      "constant": true,
      "inputs": [],
      "name": "question2",
      "outputs": [
        {
          "name": "",
          "type": "string"
        }
      ],
      "payable": false,
      "stateMutability": "view",
      "type": "function"
    },
    {
      "constant": true,
      "inputs": [],
      "name": "question3",
      "outputs": [
        {
          "name": "",
          "type": "string"
        }
      ],
      "payable": false,
      "stateMutability": "view",
      "type": "function"
    },
    {
      "constant": true,
      "inputs": [],
      "name": "quizFee",
      "outputs": [
        {
          "name": "",
          "type": "uint256"
        }
      ],
      "payable": false,
      "stateMutability": "view",
      "type": "function"
    },
    {
      "constant": true,
      "inputs": [],
      "name": "totPlayers",
      "outputs": [
        {
          "name": "",
          "type": "uint256"
        }
      ],
      "payable": false,
      "stateMutability": "view",
      "type": "function"
    },
    {
      "constant": true,
      "inputs": [],
      "name": "owner",
      "outputs": [
        {
          "name": "",
          "type": "address"
        }
      ],
      "payable": false,
      "stateMutability": "view",
      "type": "function"
    },
    {
      "constant": true,
      "inputs": [],
      "name": "numPlayers",
      "outputs": [
        {
          "name": "",
          "type": "uint256"
        }
      ],
      "payable": false,
      "stateMutability": "view",
      "type": "function"
    },
    {
      "constant": true,
      "inputs": [],
      "name": "question4",
      "outputs": [
        {
          "name": "",
          "type": "string"
        }
      ],
      "payable": false,
      "stateMutability": "view",
      "type": "function"
    },
    {
      "inputs": [
        {
          "name": "_n",
          "type": "uint256"
        },
        {
          "name": "_jointime",
          "type": "uint256"
        },
        {
          "name": "_quiztime",
          "type": "uint256"
        },
        {
          "name": "_fee",
          "type": "uint256"
        }
      ],
      "payable": false,
      "stateMutability": "nonpayable",
      "type": "constructor"
    },
    {
      "constant": false,
      "inputs": [],
      "name": "joinQuiz",
      "outputs": [],
      "payable": true,
      "stateMutability": "payable",
      "type": "function"
    },
    {
      "constant": false,
      "inputs": [],
      "name": "startQuiz",
      "outputs": [
        {
          "name": "",
          "type": "string"
        },
        {
          "name": "",
          "type": "string"
        },
        {
          "name": "",
          "type": "string"
        },
        {
          "name": "",
          "type": "string"
        }
      ],
      "payable": false,
      "stateMutability": "nonpayable",
      "type": "function"
    },
    {
      "constant": false,
      "inputs": [
        {
          "name": "_sol",
          "type": "uint256[4]"
        }
      ],
      "name": "endQuiz",
      "outputs": [],
      "payable": false,
      "stateMutability": "nonpayable",
      "type": "function"
    },
    {
      "constant": false,
      "inputs": [],
      "name": "getWinners",
      "outputs": [],
      "payable": false,
      "stateMutability": "nonpayable",
      "type": "function"
    }
  ],
  "bytecode": "0x60806040523480156200001157600080fd5b50604051608080620016db83398101806040528101908080519060200190929190805190602001909291908051906020019092919080519060200190929190505050336000806101000a81548173ffffffffffffffffffffffffffffffffffffffff021916908373ffffffffffffffffffffffffffffffffffffffff160217905550836002819055508060038190555082420160048190555081600454016005819055506040805190810160405280600581526020017f312b31203f000000000000000000000000000000000000000000000000000000815250600690805190602001906200010292919062000257565b506040805190810160405280600581526020017f322b32203f000000000000000000000000000000000000000000000000000000815250600790805190602001906200015092919062000257565b506040805190810160405280600581526020017f332b33203f000000000000000000000000000000000000000000000000000000815250600890805190602001906200019e92919062000257565b506040805190810160405280600581526020017f342b34203f00000000000000000000000000000000000000000000000000000081525060099080519060200190620001ec92919062000257565b506001600a60006004811015156200020057fe5b01819055506002600a60016004811015156200021857fe5b01819055506003600a60026004811015156200023057fe5b01819055506004600a60036004811015156200024857fe5b01819055505050505062000306565b828054600181600116156101000203166002900490600052602060002090601f016020900481019282601f106200029a57805160ff1916838001178555620002cb565b82800160010185558215620002cb579182015b82811115620002ca578251825591602001919060010190620002ad565b5b509050620002da9190620002de565b5090565b6200030391905b80821115620002ff576000816000905550600101620002e5565b5090565b90565b6113c580620003166000396000f3006080604052600436106100c5576000357c0100000000000000000000000000000000000000000000000000000000900463ffffffff16806310cd83c0146100ca57806317599cc51461015a57806333d1c2fc1461019b57806336f4a0061461022b578063378c1431146102bb57806343a78ffa146102e65780634c3415e61461031157806374992aba146104e55780638da5cb5b1461053757806397b2f5561461058e5780639ec1148e146105b9578063df15c37e146105c3578063efe47c81146105da575b600080fd5b3480156100d657600080fd5b506100df61066a565b6040518080602001828103825283818151815260200191508051906020019080838360005b8381101561011f578082015181840152602081019050610104565b50505050905090810190601f16801561014c5780820380516001836020036101000a031916815260200191505b509250505060405180910390f35b34801561016657600080fd5b5061018560048036038101908080359060200190929190505050610708565b6040518082815260200191505060405180910390f35b3480156101a757600080fd5b506101b0610722565b6040518080602001828103825283818151815260200191508051906020019080838360005b838110156101f05780820151818401526020810190506101d5565b50505050905090810190601f16801561021d5780820380516001836020036101000a031916815260200191505b509250505060405180910390f35b34801561023757600080fd5b506102406107c0565b6040518080602001828103825283818151815260200191508051906020019080838360005b83811015610280578082015181840152602081019050610265565b50505050905090810190601f1680156102ad5780820380516001836020036101000a031916815260200191505b509250505060405180910390f35b3480156102c757600080fd5b506102d061085e565b6040518082815260200191505060405180910390f35b3480156102f257600080fd5b506102fb610864565b6040518082815260200191505060405180910390f35b34801561031d57600080fd5b5061032661086a565b6040518080602001806020018060200180602001858103855289818151815260200191508051906020019080838360005b83811015610372578082015181840152602081019050610357565b50505050905090810190601f16801561039f5780820380516001836020036101000a031916815260200191505b50858103845288818151815260200191508051906020019080838360005b838110156103d85780820151818401526020810190506103bd565b50505050905090810190601f1680156104055780820380516001836020036101000a031916815260200191505b50858103835287818151815260200191508051906020019080838360005b8381101561043e578082015181840152602081019050610423565b50505050905090810190601f16801561046b5780820380516001836020036101000a031916815260200191505b50858103825286818151815260200191508051906020019080838360005b838110156104a4578082015181840152602081019050610489565b50505050905090810190601f1680156104d15780820380516001836020036101000a031916815260200191505b509850505050505050505060405180910390f35b3480156104f157600080fd5b506105356004803603810190808060800190600480602002604051908101604052809291908260046020028082843782019150505050509192919290505050610af6565b005b34801561054357600080fd5b5061054c610c71565b604051808273ffffffffffffffffffffffffffffffffffffffff1673ffffffffffffffffffffffffffffffffffffffff16815260200191505060405180910390f35b34801561059a57600080fd5b506105a3610c96565b6040518082815260200191505060405180910390f35b6105c1610c9c565b005b3480156105cf57600080fd5b506105d8610f03565b005b3480156105e657600080fd5b506105ef6112fb565b6040518080602001828103825283818151815260200191508051906020019080838360005b8381101561062f578082015181840152602081019050610614565b50505050905090810190601f16801561065c5780820380516001836020036101000a031916815260200191505b509250505060405180910390f35b60068054600181600116156101000203166002900480601f0160208091040260200160405190810160405280929190818152602001828054600181600116156101000203166002900480156107005780601f106106d557610100808354040283529160200191610700565b820191906000526020600020905b8154815290600101906020018083116106e357829003601f168201915b505050505081565b600a8160048110151561071757fe5b016000915090505481565b60078054600181600116156101000203166002900480601f0160208091040260200160405190810160405280929190818152602001828054600181600116156101000203166002900480156107b85780601f1061078d576101008083540402835291602001916107b8565b820191906000526020600020905b81548152906001019060200180831161079b57829003601f168201915b505050505081565b60088054600181600116156101000203166002900480601f0160208091040260200160405190810160405280929190818152602001828054600181600116156101000203166002900480156108565780601f1061082b57610100808354040283529160200191610856565b820191906000526020600020905b81548152906001019060200180831161083957829003601f168201915b505050505081565b60035481565b60025481565b6060806060806006600760086009838054600181600116156101000203166002900480601f01602080910402602001604051908101604052809291908181526020018280546001816001161561010002031660029004801561090d5780601f106108e25761010080835404028352916020019161090d565b820191906000526020600020905b8154815290600101906020018083116108f057829003601f168201915b50505050509350828054600181600116156101000203166002900480601f0160208091040260200160405190810160405280929190818152602001828054600181600116156101000203166002900480156109a95780601f1061097e576101008083540402835291602001916109a9565b820191906000526020600020905b81548152906001019060200180831161098c57829003601f168201915b50505050509250818054600181600116156101000203166002900480601f016020809104026020016040519081016040528092919081815260200182805460018160011615610100020316600290048015610a455780601f10610a1a57610100808354040283529160200191610a45565b820191906000526020600020905b815481529060010190602001808311610a2857829003601f168201915b50505050509150808054600181600116156101000203166002900480601f016020809104026020016040519081016040528092919081815260200182805460018160011615610100020316600290048015610ae15780601f10610ab657610100808354040283529160200191610ae1565b820191906000526020600020905b815481529060010190602001808311610ac457829003601f168201915b50505050509050935093509350935090919293565b600060045442118015610b0a575060055442105b1515610b7e576040517f08c379a00000000000000000000000000000000000000000000000000000000081526004018080602001828103825260078152602001807f54696d652075700000000000000000000000000000000000000000000000000081525060200191505060405180910390fd5b600090505b6004811015610c13578181600481101515610b9a57fe5b6020020151600f6000601060003373ffffffffffffffffffffffffffffffffffffffff1673ffffffffffffffffffffffffffffffffffffffff16815260200190815260200160002054815260200190815260200160002060010182600481101515610c0157fe5b01819055508080600101915050610b83565b42600f6000601060003373ffffffffffffffffffffffffffffffffffffffff1673ffffffffffffffffffffffffffffffffffffffff168152602001908152602001600020548152602001908152602001600020600601819055505050565b6000809054906101000a900473ffffffffffffffffffffffffffffffffffffffff1681565b60015481565b600254600154101515610d17576040517f08c379a00000000000000000000000000000000000000000000000000000000081526004018080602001828103825260158152602001807f506c61796572206c696d6974206578636565646564000000000000000000000081525060200191505060405180910390fd5b6003543410151515610d91576040517f08c379a00000000000000000000000000000000000000000000000000000000081526004018080602001828103825260108152602001807f496e73756666696369656e74206665650000000000000000000000000000000081525060200191505060405180910390fd5b60045442101515610e0a576040517f08c379a00000000000000000000000000000000000000000000000000000000081526004018080602001828103825260188152602001807f54696d6520757020666f72206a6f696e696e67207175697a000000000000000081525060200191505060405180910390fd5b600160008154809291906001019190505550600154601060003373ffffffffffffffffffffffffffffffffffffffff1673ffffffffffffffffffffffffffffffffffffffff1681526020019081526020016000208190555033600f6000600154815260200190815260200160002060000160006101000a81548173ffffffffffffffffffffffffffffffffffffffff021916908373ffffffffffffffffffffffffffffffffffffffff1602179055506003543403600e60003373ffffffffffffffffffffffffffffffffffffffff1673ffffffffffffffffffffffffffffffffffffffff16815260200190815260200160002081905550565b6000806000806000806000809054906101000a900473ffffffffffffffffffffffffffffffffffffffff1673ffffffffffffffffffffffffffffffffffffffff163373ffffffffffffffffffffffffffffffffffffffff16141515610ff6576040517f08c379a00000000000000000000000000000000000000000000000000000000081526004018080602001828103825260298152602001807f4f6e6c79206f776e657220697320616c6c6f77656420746f2063616c6c20746881526020017f6973206d6574686f64000000000000000000000000000000000000000000000081525060400191505060405180910390fd5b6005544211151561100657600080fd5b600019955060009450600093505b600484101561115c57600192505b600154831115156110b457600a8460048110151561103c57fe5b0154600f60008581526020019081526020016000206001018560048110151561106157fe5b0154148015611085575085600f600085815260200190815260200160002060060154105b156110a757600f60008481526020019081526020016000206006015495508294505b8280600101935050611022565b6010600154600354600302028115156110c957fe5b04915081600e6000600f600089815260200190815260200160002060000160009054906101000a900473ffffffffffffffffffffffffffffffffffffffff1673ffffffffffffffffffffffffffffffffffffffff1673ffffffffffffffffffffffffffffffffffffffff168152602001908152602001600020600082825401925050819055508380600101945050611014565b600193505b600154841115156112f357600e6000600f600087815260200190815260200160002060000160009054906101000a900473ffffffffffffffffffffffffffffffffffffffff1673ffffffffffffffffffffffffffffffffffffffff1673ffffffffffffffffffffffffffffffffffffffff16815260200190815260200160002054905060008111156112e6576000600e6000600f600088815260200190815260200160002060000160009054906101000a900473ffffffffffffffffffffffffffffffffffffffff1673ffffffffffffffffffffffffffffffffffffffff1673ffffffffffffffffffffffffffffffffffffffff16815260200190815260200160002081905550600f600085815260200190815260200160002060000160009054906101000a900473ffffffffffffffffffffffffffffffffffffffff1673ffffffffffffffffffffffffffffffffffffffff166108fc829081150290604051600060405180830381858888f193505050501580156112e4573d6000803e3d6000fd5b505b8380600101945050611161565b505050505050565b60098054600181600116156101000203166002900480601f0160208091040260200160405190810160405280929190818152602001828054600181600116156101000203166002900480156113915780601f1061136657610100808354040283529160200191611391565b820191906000526020600020905b81548152906001019060200180831161137457829003601f168201915b5050505050815600a165627a7a72305820daa392c4414b6619a43a561e61f3ed27621649056fdf2c3e39d790bb6c747bb80029",
  "source": "pragma solidity ^0.4.23;\n\ncontract Quiz {\n  \n  address public owner;\n  uint public numPlayers;\n  uint public totPlayers;\n  uint public quizFee;\n  uint endJoinTime;\n  uint endQuiztime;\n  string public question1;\n  string public question2;\n  string public question3;\n  string public question4;\n  uint[4] public answers;\n  \n  struct Player{\n    address account;\n    uint[4] choice;\n    uint prize;\n    uint timestamp;\n  }\n  \n  mapping (address => uint) pendingAmount;\n  mapping (uint => Player) Players;\n  mapping (address => uint) playerIndex;\n  \n  constructor(uint _n,uint _jointime,uint _quiztime,uint _fee) public {\n      owner = msg.sender;\n      totPlayers = _n;\n      quizFee = _fee;\n      endJoinTime = now + _jointime;\n      endQuiztime = endJoinTime + _quiztime;\n      question1 = \"1+1 ?\";\n      question2 = \"2+2 ?\";\n      question3 = \"3+3 ?\";\n      question4 = \"4+4 ?\";\n      answers[0] = 1;\n      answers[1] = 2;\n      answers[2] = 3;\n      answers[3] = 4;\n  }\n  \n  modifier onlyOwner() {\n    require(msg.sender == owner,\"Only owner is allowed to call this method\"); _;\n  }\n\n  function joinQuiz() public payable {\n    require(numPlayers < totPlayers,\"Player limit exceeded\");\n    require(msg.value >= quizFee,\"Insufficient fee\");\n    require (now < endJoinTime,\"Time up for joining quiz\");\n    numPlayers++;\n    playerIndex[msg.sender] = numPlayers;\n    Players[numPlayers].account = msg.sender;\n    pendingAmount[msg.sender] = msg.value - quizFee;\n  }\n  //think of ques to ques deadline(diif to implement) or whole deadline and process by timestamps of answers\n  //think of hashing ques and answers for privacy of ques and ans(dont know exactly)\n  function startQuiz ()  public  returns(string,string,string,string){\n    //require (now > endJoinTime && now < endQuiztime,\"Cannot start now\");\n    return (question1,question2,question3,question4);  \n  }\n  \n  function endQuiz (uint[4] _sol) public {\n\n    require (now > endJoinTime && now < endQuiztime,\"Time up\");\n    for(uint i=0;i<4;i++)\n        Players[playerIndex[msg.sender]].choice[i] = _sol[i];\n    Players[playerIndex[msg.sender]].timestamp = now;    \n  }\n  \n  function getWinners() public onlyOwner{\n    require (now > endQuiztime);\n    uint prev = ~uint256(0);\n    uint winner = 0;\n    \n    for(uint i=0;i<4;i++){\n        for(uint j=1;j<=numPlayers;j++){\n            if(Players[j].choice[i]==answers[i] && Players[j].timestamp < prev){\n              prev = Players[j].timestamp;\n              winner = j;\n            }\n        }\n        uint prize = (3*quizFee*numPlayers)/16;\n        pendingAmount[Players[winner].account] += prize;\n    }\n    // transfer remaining pending balance to them\n    for( i=1;i<=numPlayers;i++){\n      uint amount = pendingAmount[Players[i].account];\n      if(amount > 0){\n        pendingAmount[Players[i].account] = 0;\n        Players[i].account.transfer(amount);\n      }\n    }\n\n\n  }\n  \n}\n",
  "sourcePath": "/home/vishal/blockchains/quiz-app-solidity/contracts/Quiz.sol",
  "compiler": {
    "name": "solc",
    "version": "0.4.24+commit.e67f0147.Emscripten.clang"
  },
  "schemaVersion": "2.0.1",
  "updatedAt": "2018-10-25T06:05:03.844Z"
}