{
  "contractName": "Quiz",
  "abi": [
    {
      "constant": true,
      "inputs": [],
      "name": "quizFee",
      "outputs": [
        {
          "name": "",
          "type": "uint256"
        }
      ],
      "payable": false,
      "stateMutability": "view",
      "type": "function"
    },
    {
      "constant": true,
      "inputs": [],
      "name": "totPlayers",
      "outputs": [
        {
          "name": "",
          "type": "uint256"
        }
      ],
      "payable": false,
      "stateMutability": "view",
      "type": "function"
    },
    {
      "constant": true,
      "inputs": [],
      "name": "owner",
      "outputs": [
        {
          "name": "",
          "type": "address"
        }
      ],
      "payable": false,
      "stateMutability": "view",
      "type": "function"
    },
    {
      "constant": true,
      "inputs": [],
      "name": "numPlayers",
      "outputs": [
        {
          "name": "",
          "type": "uint256"
        }
      ],
      "payable": false,
      "stateMutability": "view",
      "type": "function"
    },
    {
      "inputs": [
        {
          "name": "_n",
          "type": "uint256"
        },
        {
          "name": "_jointime",
          "type": "uint256"
        },
        {
          "name": "_quiztime",
          "type": "uint256"
        }
      ],
      "payable": false,
      "stateMutability": "nonpayable",
      "type": "constructor"
    },
    {
      "constant": false,
      "inputs": [],
      "name": "joinQuiz",
      "outputs": [],
      "payable": true,
      "stateMutability": "payable",
      "type": "function"
    },
    {
      "constant": false,
      "inputs": [
        {
          "name": "_sol",
          "type": "uint256[4]"
        }
      ],
      "name": "startQuiz",
      "outputs": [],
      "payable": false,
      "stateMutability": "nonpayable",
      "type": "function"
    },
    {
      "constant": false,
      "inputs": [],
      "name": "getWinners",
      "outputs": [],
      "payable": false,
      "stateMutability": "nonpayable",
      "type": "function"
    }
  ],
  "bytecode": "0x60806040523480156200001157600080fd5b5060405160608062000d55833981018060405281019080805190602001909291908051906020019092919080519060200190929190505050336000806101000a81548173ffffffffffffffffffffffffffffffffffffffff021916908373ffffffffffffffffffffffffffffffffffffffff1602179055508260028190555081420160048190555080600454016005819055506040805190810160405280600581526020017f312b31203f00000000000000000000000000000000000000000000000000000081525060066000600481101515620000eb57fe5b0190805190602001906200010192919062000285565b506040805190810160405280600581526020017f322b32203f000000000000000000000000000000000000000000000000000000815250600660016004811015156200014957fe5b0190805190602001906200015f92919062000285565b506040805190810160405280600581526020017f332b33203f00000000000000000000000000000000000000000000000000000081525060066002600481101515620001a757fe5b019080519060200190620001bd92919062000285565b506040805190810160405280600581526020017f342b34203f000000000000000000000000000000000000000000000000000000815250600660036004811015156200020557fe5b0190805190602001906200021b92919062000285565b506001600a60006004811015156200022f57fe5b01819055506002600a60016004811015156200024757fe5b01819055506003600a60026004811015156200025f57fe5b01819055506004600a60036004811015156200027757fe5b018190555050505062000334565b828054600181600116156101000203166002900490600052602060002090601f016020900481019282601f10620002c857805160ff1916838001178555620002f9565b82800160010185558215620002f9579182015b82811115620002f8578251825591602001919060010190620002db565b5b5090506200030891906200030c565b5090565b6200033191905b808211156200032d57600081600090555060010162000313565b5090565b90565b610a1180620003446000396000f300608060405260043610610083576000357c0100000000000000000000000000000000000000000000000000000000900463ffffffff168063378c14311461008857806343a78ffa146100b35780638da5cb5b146100de57806397b2f556146101355780639ec1148e14610160578063b429eed71461016a578063df15c37e146101bc575b600080fd5b34801561009457600080fd5b5061009d6101d3565b6040518082815260200191505060405180910390f35b3480156100bf57600080fd5b506100c86101d9565b6040518082815260200191505060405180910390f35b3480156100ea57600080fd5b506100f36101df565b604051808273ffffffffffffffffffffffffffffffffffffffff1673ffffffffffffffffffffffffffffffffffffffff16815260200191505060405180910390f35b34801561014157600080fd5b5061014a610204565b6040518082815260200191505060405180910390f35b61016861020a565b005b34801561017657600080fd5b506101ba6004803603810190808060800190600480602002604051908101604052809291908260046020028082843782019150505050509192919290505050610472565b005b3480156101c857600080fd5b506101d16105ed565b005b60035481565b60025481565b6000809054906101000a900473ffffffffffffffffffffffffffffffffffffffff1681565b60015481565b60015460025411151515610286576040517f08c379a00000000000000000000000000000000000000000000000000000000081526004018080602001828103825260158152602001807f506c61796572206c696d6974206578636565646564000000000000000000000081525060200191505060405180910390fd5b6003543410151515610300576040517f08c379a00000000000000000000000000000000000000000000000000000000081526004018080602001828103825260108152602001807f496e73756666696369656e74206665650000000000000000000000000000000081525060200191505060405180910390fd5b60045442101515610379576040517f08c379a00000000000000000000000000000000000000000000000000000000081526004018080602001828103825260188152602001807f54696d6520757020666f72206a6f696e696e67207175697a000000000000000081525060200191505060405180910390fd5b600160008154809291906001019190505550600154601060003373ffffffffffffffffffffffffffffffffffffffff1673ffffffffffffffffffffffffffffffffffffffff1681526020019081526020016000208190555033600f6000600154815260200190815260200160002060000160006101000a81548173ffffffffffffffffffffffffffffffffffffffff021916908373ffffffffffffffffffffffffffffffffffffffff1602179055506003543403600e60003373ffffffffffffffffffffffffffffffffffffffff1673ffffffffffffffffffffffffffffffffffffffff16815260200190815260200160002081905550565b600060045442118015610486575060055442105b15156104fa576040517f08c379a00000000000000000000000000000000000000000000000000000000081526004018080602001828103825260078152602001807f54696d652075700000000000000000000000000000000000000000000000000081525060200191505060405180910390fd5b600090505b600481101561058f57818160048110151561051657fe5b6020020151600f6000601060003373ffffffffffffffffffffffffffffffffffffffff1673ffffffffffffffffffffffffffffffffffffffff1681526020019081526020016000205481526020019081526020016000206001018260048110151561057d57fe5b018190555080806001019150506104ff565b42600f6000601060003373ffffffffffffffffffffffffffffffffffffffff1673ffffffffffffffffffffffffffffffffffffffff168152602001908152602001600020548152602001908152602001600020600601819055505050565b6000806000806000806000809054906101000a900473ffffffffffffffffffffffffffffffffffffffff1673ffffffffffffffffffffffffffffffffffffffff163373ffffffffffffffffffffffffffffffffffffffff161415156106e0576040517f08c379a00000000000000000000000000000000000000000000000000000000081526004018080602001828103825260298152602001807f4f6e6c79206f776e657220697320616c6c6f77656420746f2063616c6c20746881526020017f6973206d6574686f64000000000000000000000000000000000000000000000081525060400191505060405180910390fd5b600554421115156106f057600080fd5b600019955060009450600093505b600484101561084657600192505b6001548311151561079e57600a8460048110151561072657fe5b0154600f60008581526020019081526020016000206001018560048110151561074b57fe5b015414801561076f575085600f600085815260200190815260200160002060060154105b1561079157600f60008481526020019081526020016000206006015495508294505b828060010193505061070c565b6010600154600354600302028115156107b357fe5b04915081600e6000600f600089815260200190815260200160002060000160009054906101000a900473ffffffffffffffffffffffffffffffffffffffff1673ffffffffffffffffffffffffffffffffffffffff1673ffffffffffffffffffffffffffffffffffffffff1681526020019081526020016000206000828254019250508190555083806001019450506106fe565b600193505b600154841115156109dd57600e6000600f600087815260200190815260200160002060000160009054906101000a900473ffffffffffffffffffffffffffffffffffffffff1673ffffffffffffffffffffffffffffffffffffffff1673ffffffffffffffffffffffffffffffffffffffff16815260200190815260200160002054905060008111156109d0576000600e6000600f600088815260200190815260200160002060000160009054906101000a900473ffffffffffffffffffffffffffffffffffffffff1673ffffffffffffffffffffffffffffffffffffffff1673ffffffffffffffffffffffffffffffffffffffff16815260200190815260200160002081905550600f600085815260200190815260200160002060000160009054906101000a900473ffffffffffffffffffffffffffffffffffffffff1673ffffffffffffffffffffffffffffffffffffffff166108fc829081150290604051600060405180830381858888f193505050501580156109ce573d6000803e3d6000fd5b505b838060010194505061084b565b5050505050505600a165627a7a723058208e257d5d8daf51b25992a39572e24652f7236c40dc989e51a43a81105a724bbf0029",
  "source": "pragma solidity ^0.4.23;\n\ncontract Quiz {\n  \n  address public owner;\n  uint public numPlayers;\n  uint public totPlayers;\n  uint public quizFee;\n  uint endJoinTime;\n  uint endQuiztime;\n  string[4] questions;\n  uint[4] answers;\n  \n  struct Player{\n    address account;\n    uint[4] choice;\n    uint prize;\n    uint timestamp;\n  }\n  \n  mapping (address => uint) pendingAmount;\n  mapping (uint => Player) Players;\n  mapping (address => uint) playerIndex;\n  \n  constructor(uint _n,uint _jointime,uint _quiztime) public {\n      owner = msg.sender;\n      totPlayers = _n;\n      endJoinTime = now + _jointime;\n      endQuiztime = endJoinTime + _quiztime;\n      questions[0] = \"1+1 ?\";\n      questions[1] = \"2+2 ?\";\n      questions[2] = \"3+3 ?\";\n      questions[3] = \"4+4 ?\";\n      answers[0] = 1;\n      answers[1] = 2;\n      answers[2] = 3;\n      answers[3] = 4;\n  }\n  \n  modifier onlyOwner() {\n    require(msg.sender == owner,\"Only owner is allowed to call this method\"); _;\n  }\n\n  function joinQuiz() public payable {\n    require(totPlayers <= numPlayers,\"Player limit exceeded\");\n    require(msg.value >= quizFee,\"Insufficient fee\");\n    require (now < endJoinTime,\"Time up for joining quiz\");\n    numPlayers++;\n    playerIndex[msg.sender] = numPlayers;\n    Players[numPlayers].account = msg.sender;\n    pendingAmount[msg.sender] = msg.value - quizFee;\n  }\n  //think of ques to ques deadline(diif to implement) or whole deadline and process by timestamps of answers\n  //think of hashing ques and answers for privacy of ques and ans(dont know exactly)\n\n  function startQuiz (uint[4] _sol) public {\n    require (now > endJoinTime && now < endQuiztime,\"Time up\");\n    for(uint i=0;i<4;i++)\n        Players[playerIndex[msg.sender]].choice[i] = _sol[i];\n    Players[playerIndex[msg.sender]].timestamp = now;    \n  }\n  \n  function getWinners() public onlyOwner{\n    require (now > endQuiztime);\n    uint prev = ~uint256(0);\n    uint winner = 0;\n    \n    for(uint i=0;i<4;i++){\n        for(uint j=1;j<=numPlayers;j++){\n            if(Players[j].choice[i]==answers[i] && Players[j].timestamp < prev){\n              prev = Players[j].timestamp;\n              winner = j;\n            }\n        }\n        uint prize = (3*quizFee*numPlayers)/16;\n        pendingAmount[Players[winner].account] += prize;\n    }\n    // transfer remaining pending balance to them\n    for( i=1;i<=numPlayers;i++){\n      uint amount = pendingAmount[Players[i].account];\n      if(amount > 0){\n        pendingAmount[Players[i].account] = 0;\n        Players[i].account.transfer(amount);\n      }\n    }\n\n\n  }\n  \n}\n",
  "sourcePath": "/home/vishal/blockchains/quiz-app-solidity/contracts/Quiz.sol",
  "compiler": {
    "name": "solc",
    "version": "0.4.24+commit.e67f0147.Emscripten.clang"
  },
  "schemaVersion": "2.0.1",
  "updatedAt": "2018-10-24T18:49:04.849Z"
}