{
  "contractName": "Quiz",
  "abi": [
    {
      "constant": true,
      "inputs": [],
      "name": "quizFee",
      "outputs": [
        {
          "name": "",
          "type": "uint256"
        }
      ],
      "payable": false,
      "stateMutability": "view",
      "type": "function"
    },
    {
      "constant": true,
      "inputs": [],
      "name": "totPlayers",
      "outputs": [
        {
          "name": "",
          "type": "uint256"
        }
      ],
      "payable": false,
      "stateMutability": "view",
      "type": "function"
    },
    {
      "constant": true,
      "inputs": [
        {
          "name": "",
          "type": "address"
        }
      ],
      "name": "isValid",
      "outputs": [
        {
          "name": "",
          "type": "bool"
        }
      ],
      "payable": false,
      "stateMutability": "view",
      "type": "function"
    },
    {
      "constant": true,
      "inputs": [],
      "name": "owner",
      "outputs": [
        {
          "name": "",
          "type": "address"
        }
      ],
      "payable": false,
      "stateMutability": "view",
      "type": "function"
    },
    {
      "constant": true,
      "inputs": [],
      "name": "numPlayers",
      "outputs": [
        {
          "name": "",
          "type": "uint256"
        }
      ],
      "payable": false,
      "stateMutability": "view",
      "type": "function"
    },
    {
      "inputs": [
        {
          "name": "_n",
          "type": "uint256"
        },
        {
          "name": "_jointime",
          "type": "uint256"
        },
        {
          "name": "_revealtime",
          "type": "uint256"
        },
        {
          "name": "_quiztime",
          "type": "uint256"
        },
        {
          "name": "_fee",
          "type": "uint256"
        },
        {
          "name": "_secret",
          "type": "bytes32"
        }
      ],
      "payable": false,
      "stateMutability": "nonpayable",
      "type": "constructor"
    },
    {
      "anonymous": false,
      "inputs": [
        {
          "indexed": false,
          "name": "sender",
          "type": "address"
        },
        {
          "indexed": false,
          "name": "amount",
          "type": "uint256"
        }
      ],
      "name": "Collected",
      "type": "event"
    },
    {
      "constant": false,
      "inputs": [],
      "name": "joinQuiz",
      "outputs": [],
      "payable": true,
      "stateMutability": "payable",
      "type": "function"
    },
    {
      "constant": false,
      "inputs": [
        {
          "name": "_key",
          "type": "uint256[4]"
        }
      ],
      "name": "revealQuestions",
      "outputs": [],
      "payable": false,
      "stateMutability": "nonpayable",
      "type": "function"
    },
    {
      "constant": true,
      "inputs": [],
      "name": "startQuiz",
      "outputs": [
        {
          "name": "",
          "type": "string"
        },
        {
          "name": "",
          "type": "string"
        },
        {
          "name": "",
          "type": "string"
        },
        {
          "name": "",
          "type": "string"
        }
      ],
      "payable": false,
      "stateMutability": "view",
      "type": "function"
    },
    {
      "constant": false,
      "inputs": [],
      "name": "withdraw",
      "outputs": [],
      "payable": false,
      "stateMutability": "nonpayable",
      "type": "function"
    },
    {
      "constant": false,
      "inputs": [
        {
          "name": "_sol",
          "type": "uint256[4]"
        }
      ],
      "name": "endQuiz",
      "outputs": [],
      "payable": false,
      "stateMutability": "nonpayable",
      "type": "function"
    },
    {
      "constant": false,
      "inputs": [],
      "name": "getWinners",
      "outputs": [],
      "payable": false,
      "stateMutability": "nonpayable",
      "type": "function"
    }
  ],
  "bytecode": "0x608060405234801561001057600080fd5b5060405160c08061208d8339810180604052810190808051906020019092919080519060200190929190805190602001909291908051906020019092919080519060200190929190805190602001909291905050506000821180156100755750600086115b80156100815750600085115b801561008d5750600083115b80156100995750600084115b151561010d576040517f08c379a00000000000000000000000000000000000000000000000000000000081526004018080602001828103825260188152602001807f696e76616c696420696e7075747320746f206465706c6f79000000000000000081525060200191505060405180910390fd5b336000806101000a81548173ffffffffffffffffffffffffffffffffffffffff021916908373ffffffffffffffffffffffffffffffffffffffff160217905550856002819055508160038190555080600f816000191690555084420160048190555083600454016005819055508260055401600681905550505050505050611ef38061019a6000396000f3006080604052600436106100af576000357c0100000000000000000000000000000000000000000000000000000000900463ffffffff168063378c1431146100b45780633ccfd60b146100df57806343a78ffa146100f65780634c3415e61461012157806374992aba146102f55780638b1b925f146103475780638da5cb5b146103a257806397b2f556146103f95780639ec1148e14610424578063d08b26881461042e578063df15c37e14610480575b600080fd5b3480156100c057600080fd5b506100c9610497565b6040518082815260200191505060405180910390f35b3480156100eb57600080fd5b506100f461049d565b005b34801561010257600080fd5b5061010b610826565b6040518082815260200191505060405180910390f35b34801561012d57600080fd5b5061013661082c565b6040518080602001806020018060200180602001858103855289818151815260200191508051906020019080838360005b83811015610182578082015181840152602081019050610167565b50505050905090810190601f1680156101af5780820380516001836020036101000a031916815260200191505b50858103845288818151815260200191508051906020019080838360005b838110156101e85780820151818401526020810190506101cd565b50505050905090810190601f1680156102155780820380516001836020036101000a031916815260200191505b50858103835287818151815260200191508051906020019080838360005b8381101561024e578082015181840152602081019050610233565b50505050905090810190601f16801561027b5780820380516001836020036101000a031916815260200191505b50858103825286818151815260200191508051906020019080838360005b838110156102b4578082015181840152602081019050610299565b50505050905090810190601f1680156102e15780820380516001836020036101000a031916815260200191505b509850505050505050505060405180910390f35b34801561030157600080fd5b506103456004803603810190808060800190600480602002604051908101604052809291908260046020028082843782019150505050509192919290505050610cb0565b005b34801561035357600080fd5b50610388600480360381019080803573ffffffffffffffffffffffffffffffffffffffff16906020019092919050505061103b565b604051808215151515815260200191505060405180910390f35b3480156103ae57600080fd5b506103b761105b565b604051808273ffffffffffffffffffffffffffffffffffffffff1673ffffffffffffffffffffffffffffffffffffffff16815260200191505060405180910390f35b34801561040557600080fd5b5061040e611080565b6040518082815260200191505060405180910390f35b61042c611086565b005b34801561043a57600080fd5b5061047e600480360381019080806080019060048060200260405190810160405280929190826004602002808284378201915050505050919291929050505061140d565b005b34801561048c57600080fd5b506104956117a7565b005b60035481565b600060055442111515610518576040517f08c379a00000000000000000000000000000000000000000000000000000000081526004018080602001828103825260138152602001807f43616e6e6f74207769746864726177206e6f770000000000000000000000000081525060200191505060405180910390fd5b60001515601060009054906101000a900460ff1615151415156105c9576040517f08c379a00000000000000000000000000000000000000000000000000000000081526004018080602001828103825260288152602001807f5175657374696f6e73206172652052657665616c656420796f752063616e742081526020017f776974686472617700000000000000000000000000000000000000000000000081525060400191505060405180910390fd5b601460003373ffffffffffffffffffffffffffffffffffffffff1673ffffffffffffffffffffffffffffffffffffffff16815260200190815260200160002060009054906101000a900460ff16151561068a576040517f08c379a00000000000000000000000000000000000000000000000000000000081526004018080602001828103825260118152602001807f596f752063616e7420776974686472617700000000000000000000000000000081525060200191505060405180910390fd5b6000601460003373ffffffffffffffffffffffffffffffffffffffff1673ffffffffffffffffffffffffffffffffffffffff16815260200190815260200160002060006101000a81548160ff021916908315150217905550601160003373ffffffffffffffffffffffffffffffffffffffff1673ffffffffffffffffffffffffffffffffffffffff1681526020019081526020016000205490506000601160003373ffffffffffffffffffffffffffffffffffffffff1673ffffffffffffffffffffffffffffffffffffffff168152602001908152602001600020819055507f8c22f554c81b54107cd95e734e4ef45767214974a540f34ea4a4f8c3fc7b13c3338260035401604051808373ffffffffffffffffffffffffffffffffffffffff1673ffffffffffffffffffffffffffffffffffffffff1681526020018281526020019250505060405180910390a13373ffffffffffffffffffffffffffffffffffffffff166108fc82600354019081150290604051600060405180830381858888f19350505050158015610822573d6000803e3d6000fd5b5050565b60025481565b60608060608060055442118015610844575060065442105b15156108b8576040517f08c379a00000000000000000000000000000000000000000000000000000000081526004018080602001828103825260108152602001807f43616e6e6f74207374617274206e6f770000000000000000000000000000000081525060200191505060405180910390fd5b60011515601460003373ffffffffffffffffffffffffffffffffffffffff1673ffffffffffffffffffffffffffffffffffffffff16815260200190815260200160002060009054906101000a900460ff161515141515610980576040517f08c379a00000000000000000000000000000000000000000000000000000000081526004018080602001828103825260158152602001807f596f752063616e6e6f74207374617274207175697a000000000000000000000081525060200191505060405180910390fd5b601060009054906101000a900460ff161515610a2a576040517f08c379a000000000000000000000000000000000000000000000000000000000815260040180806020018281038252603b8152602001807f5175657374696f6e73206e6f742052657665616c6564206279206f776e65722081526020017f706c6561736520776974686472617720796f757220616d6f756e74000000000081525060400191505060405180910390fd5b600760086009600a838054600181600116156101000203166002900480601f016020809104026020016040519081016040528092919081815260200182805460018160011615610100020316600290048015610ac75780601f10610a9c57610100808354040283529160200191610ac7565b820191906000526020600020905b815481529060010190602001808311610aaa57829003601f168201915b50505050509350828054600181600116156101000203166002900480601f016020809104026020016040519081016040528092919081815260200182805460018160011615610100020316600290048015610b635780601f10610b3857610100808354040283529160200191610b63565b820191906000526020600020905b815481529060010190602001808311610b4657829003601f168201915b50505050509250818054600181600116156101000203166002900480601f016020809104026020016040519081016040528092919081815260200182805460018160011615610100020316600290048015610bff5780601f10610bd457610100808354040283529160200191610bff565b820191906000526020600020905b815481529060010190602001808311610be257829003601f168201915b50505050509150808054600181600116156101000203166002900480601f016020809104026020016040519081016040528092919081815260200182805460018160011615610100020316600290048015610c9b5780601f10610c7057610100808354040283529160200191610c9b565b820191906000526020600020905b815481529060010190602001808311610c7e57829003601f168201915b50505050509050935093509350935090919293565b600060055442111515610d2b576040517f08c379a000000000000000000000000000000000000000000000000000000000815260040180806020018281038252600e8152602001807f43616e6e6f7420656e64206e6f7700000000000000000000000000000000000081525060200191505060405180910390fd5b60065442101515610da4576040517f08c379a00000000000000000000000000000000000000000000000000000000081526004018080602001828103825260078152602001807f54696d652075700000000000000000000000000000000000000000000000000081525060200191505060405180910390fd5b60011515601460003373ffffffffffffffffffffffffffffffffffffffff1673ffffffffffffffffffffffffffffffffffffffff16815260200190815260200160002060009054906101000a900460ff161515141515610e6c576040517f08c379a00000000000000000000000000000000000000000000000000000000081526004018080602001828103825260138152602001807f43616e6e6f74207375626d69742074776963650000000000000000000000000081525060200191505060405180910390fd5b601060009054906101000a900460ff161515610ef0576040517f08c379a00000000000000000000000000000000000000000000000000000000081526004018080602001828103825260168152602001807f5175657374696f6e73206e6f742052657665616c65640000000000000000000081525060200191505060405180910390fd5b6000601460003373ffffffffffffffffffffffffffffffffffffffff1673ffffffffffffffffffffffffffffffffffffffff16815260200190815260200160002060006101000a81548160ff021916908315150217905550600090505b6004811015610fdd578181600481101515610f6457fe5b602002015160126000601360003373ffffffffffffffffffffffffffffffffffffffff1673ffffffffffffffffffffffffffffffffffffffff16815260200190815260200160002054815260200190815260200160002060010182600481101515610fcb57fe5b01819055508080600101915050610f4d565b4260126000601360003373ffffffffffffffffffffffffffffffffffffffff1673ffffffffffffffffffffffffffffffffffffffff168152602001908152602001600020548152602001908152602001600020600501819055505050565b60146020528060005260406000206000915054906101000a900460ff1681565b6000809054906101000a900473ffffffffffffffffffffffffffffffffffffffff1681565b60015481565b600254600154101515611101576040517f08c379a00000000000000000000000000000000000000000000000000000000081526004018080602001828103825260158152602001807f506c61796572206c696d6974206578636565646564000000000000000000000081525060200191505060405180910390fd5b600354341015151561117b576040517f08c379a00000000000000000000000000000000000000000000000000000000081526004018080602001828103825260108152602001807f496e73756666696369656e74206665650000000000000000000000000000000081525060200191505060405180910390fd5b60001515601460003373ffffffffffffffffffffffffffffffffffffffff1673ffffffffffffffffffffffffffffffffffffffff16815260200190815260200160002060009054906101000a900460ff161515141515611243576040517f08c379a000000000000000000000000000000000000000000000000000000000815260040180806020018281038252600f8152602001807f496e76616c69642061646472657373000000000000000000000000000000000081525060200191505060405180910390fd5b600454421015156112bc576040517f08c379a00000000000000000000000000000000000000000000000000000000081526004018080602001828103825260188152602001807f54696d6520757020666f72206a6f696e696e67207175697a000000000000000081525060200191505060405180910390fd5b600160008154809291906001019190505550600154601360003373ffffffffffffffffffffffffffffffffffffffff1673ffffffffffffffffffffffffffffffffffffffff168152602001908152602001600020819055506001601460003373ffffffffffffffffffffffffffffffffffffffff1673ffffffffffffffffffffffffffffffffffffffff16815260200190815260200160002060006101000a81548160ff0219169083151502179055503360126000600154815260200190815260200160002060000160006101000a81548173ffffffffffffffffffffffffffffffffffffffff021916908373ffffffffffffffffffffffffffffffffffffffff1602179055506003543403601160003373ffffffffffffffffffffffffffffffffffffffff1673ffffffffffffffffffffffffffffffffffffffff16815260200190815260200160002081905550565b60008060009054906101000a900473ffffffffffffffffffffffffffffffffffffffff1673ffffffffffffffffffffffffffffffffffffffff163373ffffffffffffffffffffffffffffffffffffffff161415156114f9576040517f08c379a00000000000000000000000000000000000000000000000000000000081526004018080602001828103825260298152602001807f4f6e6c79206f776e657220697320616c6c6f77656420746f2063616c6c20746881526020017f6973206d6574686f64000000000000000000000000000000000000000000000081525060400191505060405180910390fd5b6004544211801561150b575060055442105b151561157f576040517f08c379a00000000000000000000000000000000000000000000000000000000081526004018080602001828103825260118152602001807f43616e6e6f742072657665616c206e6f7700000000000000000000000000000081525060200191505060405180910390fd5b6001601060006101000a81548160ff0219169083151502179055506040805190810160405280601581526020017f57686174206973206120626c6f636b636861696e3f0000000000000000000000815250600790805190602001906115e5929190611e22565b506040805190810160405280600d81526020017f57686174206973205554584f3f0000000000000000000000000000000000000081525060089080519060200190611631929190611e22565b506040805190810160405280601481526020017f57686f206372656174656420426974636f696e3f0000000000000000000000008152506009908051906020019061167d929190611e22565b506040805190810160405280601881526020017f5768617420646f657320503250207374616e6420666f723f0000000000000000815250600a90805190602001906116c9929190611e22565b50600090505b60048110156117a35781816004811015156116e657fe5b6020020151600f54604051602001808381526020018260001916600019168152602001925050506040516020818303038152906040526040518082805190602001908083835b602083101515611751578051825260208201915060208101905060208303925061172c565b6001836020036101000a0380198251168184511680821785525050505050509050019150506040518091039020600b8260048110151561178d57fe5b01816000191690555080806001019150506116cf565b5050565b6000806000806000806000809054906101000a900473ffffffffffffffffffffffffffffffffffffffff1673ffffffffffffffffffffffffffffffffffffffff163373ffffffffffffffffffffffffffffffffffffffff1614151561189a576040517f08c379a00000000000000000000000000000000000000000000000000000000081526004018080602001828103825260298152602001807f4f6e6c79206f776e657220697320616c6c6f77656420746f2063616c6c20746881526020017f6973206d6574686f64000000000000000000000000000000000000000000000081525060400191505060405180910390fd5b60065442111515611913576040517f08c379a00000000000000000000000000000000000000000000000000000000081526004018080602001828103825260118152602001807f5175697a20646964206e6f7420656e642000000000000000000000000000000081525060200191505060405180910390fd5b601060009054906101000a900460ff161515611997576040517f08c379a000000000000000000000000000000000000000000000000000000000815260040180806020018281038252601a8152602001807f596f75206469646e742072657665616c205175657374696f6e7300000000000081525060200191505060405180910390fd5b60009550600094505b6004851015611bb0577fffffffffffffffffffffffffffffffffffffffffffffffffffffffffffffffff9350600192505b60015483111515611afe5760126000848152602001908152602001600020600101856004811015156119ff57fe5b0154600f54604051602001808381526020018260001916600019168152602001925050506040516020818303038152906040526040518082805190602001908083835b602083101515611a675780518252602082019150602081019050602083039250611a42565b6001836020036101000a038019825116818451168082178552505050505050905001915050604051809103902060001916600b86600481101515611aa757fe5b015460001916148015611acf5750836012600085815260200190815260200160002060050154105b15611af157601260008481526020019081526020016000206005015493508295505b82806001019350506119d1565b6000861115611ba357601060015460035460030202811515611b1c57fe5b0491508160116000601260008a815260200190815260200160002060000160009054906101000a900473ffffffffffffffffffffffffffffffffffffffff1673ffffffffffffffffffffffffffffffffffffffff1673ffffffffffffffffffffffffffffffffffffffff168152602001908152602001600020600082825401925050819055505b84806001019550506119a0565b600194505b60015485111515611de857601160006012600088815260200190815260200160002060000160009054906101000a900473ffffffffffffffffffffffffffffffffffffffff1673ffffffffffffffffffffffffffffffffffffffff1673ffffffffffffffffffffffffffffffffffffffff1681526020019081526020016000205490507f8c22f554c81b54107cd95e734e4ef45767214974a540f34ea4a4f8c3fc7b13c36012600087815260200190815260200160002060000160009054906101000a900473ffffffffffffffffffffffffffffffffffffffff1682604051808373ffffffffffffffffffffffffffffffffffffffff1673ffffffffffffffffffffffffffffffffffffffff1681526020018281526020019250505060405180910390a16000811115611ddb576000601160006012600089815260200190815260200160002060000160009054906101000a900473ffffffffffffffffffffffffffffffffffffffff1673ffffffffffffffffffffffffffffffffffffffff1673ffffffffffffffffffffffffffffffffffffffff168152602001908152602001600020819055506012600086815260200190815260200160002060000160009054906101000a900473ffffffffffffffffffffffffffffffffffffffff1673ffffffffffffffffffffffffffffffffffffffff166108fc829081150290604051600060405180830381858888f19350505050158015611dd9573d6000803e3d6000fd5b505b8480600101955050611bb5565b6000809054906101000a900473ffffffffffffffffffffffffffffffffffffffff1673ffffffffffffffffffffffffffffffffffffffff16ff5b828054600181600116156101000203166002900490600052602060002090601f016020900481019282601f10611e6357805160ff1916838001178555611e91565b82800160010185558215611e91579182015b82811115611e90578251825591602001919060010190611e75565b5b509050611e9e9190611ea2565b5090565b611ec491905b80821115611ec0576000816000905550600101611ea8565b5090565b905600a165627a7a723058208471c81c0b6170840992b6d38eea6d0286e777755f7cbdca32cd265048ef2c350029",
  "source": "pragma solidity ^0.4.23;\n\ncontract Quiz {\n  \n  address public owner;\n  uint public numPlayers;\n  uint public totPlayers;\n  uint public quizFee;\n  uint endJoinTime;\n  uint endRevealTime;\n  uint endQuiztime;\n  string question1;\n  string question2;\n  string question3;\n  string question4;\n  bytes32[4] answers;\n  bytes32 secret;\n  bool isReveal;\n  struct Player{\n    address account;\n    uint[4] choice;\n    uint timestamp;\n  }\n  \n  mapping (address => uint) pendingAmount;\n  mapping (uint => Player) Players;\n  mapping (address => uint) playerIndex;\n  mapping (address => bool) public isValid;\n  \n  event Collected(address sender,uint amount);\n  \n  constructor(uint _n,uint _jointime,uint _revealtime,uint _quiztime,uint _fee,bytes32 _secret) public {\n      \n      require (_fee > 0 && _n>0 && _jointime >0 && _quiztime >0 && _revealtime >0 ,\"invalid inputs to deploy\");\n      \n      owner = msg.sender;\n      totPlayers = _n;\n      quizFee = _fee;\n      secret = _secret;\n      endJoinTime = now + _jointime;\n      endRevealTime = endJoinTime + _revealtime;\n      endQuiztime = endRevealTime + _quiztime;\n  }\n  \n  modifier onlyOwner() {\n    require(msg.sender == owner,\"Only owner is allowed to call this method\"); _;\n  }\n\n  function joinQuiz() public payable {\n    require(numPlayers < totPlayers,\"Player limit exceeded\");\n    require(msg.value >= quizFee,\"Insufficient fee\");\n    require (isValid[msg.sender]==false,\"Invalid address\");\n    require (now < endJoinTime,\"Time up for joining quiz\");\n\n    numPlayers++;\n    playerIndex[msg.sender] = numPlayers;\n    isValid[msg.sender]=true;\n    Players[numPlayers].account = msg.sender;\n    pendingAmount[msg.sender] = msg.value - quizFee;\n  }\n  \n  function revealQuestions(uint[4] _key) public onlyOwner{\n\n      require (now > endJoinTime && now < endRevealTime,\"Cannot reveal now\");\n      isReveal = true;  \n      //can send this as arguments\n      question1 = \"What is a blockchain?\";\n      question2 = \"What is UTXO?\";\n      question3 = \"Who created Bitcoin?\";\n      question4 = \"What does P2P stand for?\";\n      for(uint i=0;i<4;i++)\n        answers[i] = keccak256(abi.encodePacked(_key[i],secret));\n  }\n\n  function startQuiz () public constant returns(string,string,string,string){\n    require (now > endRevealTime && now < endQuiztime,\"Cannot start now\");\n    require (isValid[msg.sender]==true,\"You cannot start quiz\");\n    require (isReveal,\"Questions not Revealed by owner please withdraw your amount\");\n    \n    return (question1,question2,question3,question4);  \n  }\n\n  function withdraw () public {\n    \n    require (now > endRevealTime,\"Cannot withdraw now\");\n    require (isReveal==false,\"Questions are Revealed you cant withdraw\");\n    require (isValid[msg.sender],\"You cant withdraw\");\n      \n    isValid[msg.sender]=false;\n    uint amount = pendingAmount[msg.sender];\n    pendingAmount[msg.sender] = 0;\n    emit Collected(msg.sender,quizFee+amount);\n    msg.sender.transfer(quizFee+amount);\n  }\n  \n  \n  function endQuiz (uint[4] _sol) public {\n\n    require (now > endRevealTime ,\"Cannot end now\"); \n    require(now < endQuiztime,\"Time up\");\n    require (isValid[msg.sender]==true,\"Cannot submit twice\");\n    require (isReveal,\"Questions not Revealed\");\n    \n    isValid[msg.sender]=false;\n    for(uint i=0;i<4;i++)\n        Players[playerIndex[msg.sender]].choice[i] = _sol[i];\n    Players[playerIndex[msg.sender]].timestamp = now;    \n  }\n  \n  function getWinners() public onlyOwner  {\n    require (now > endQuiztime,'Quiz did not end ');\n    require (isReveal,\"You didnt reveal Questions\");\n    \n    //calculate winner for each ques based on timestamp and add prize\n    uint winner = 0;\n    uint i;\n    for( i=0;i<4;i++){\n        uint prev = 2**256 - 1;\n        for(uint j=1;j<=numPlayers;j++){\n           \n            if(answers[i] == keccak256(abi.encodePacked(Players[j].choice[i],secret)) && Players[j].timestamp < prev){\n              prev = Players[j].timestamp;\n              winner = j;\n            }\n        }\n         if(winner > 0){\n         uint prize = (3*quizFee*numPlayers)/16;\n         pendingAmount[Players[winner].account] += prize;\n       }\n    }\n    //transfer remaining pending balance to them\n    for( i=1;i<=numPlayers;i++){\n      uint amount = pendingAmount[Players[i].account];\n      emit Collected(Players[i].account,amount);\n      \n      if(amount > 0){\n        pendingAmount[Players[i].account] = 0;\n        Players[i].account.transfer(amount);\n      }\n    }\n    // send contract balance to owner;\n    selfdestruct(owner);\n  }\n  \n  \n}\n",
  "sourcePath": "/home/vishal/blockchains/quiz-app-solidity/contracts/Quiz.sol",
  "compiler": {
    "name": "solc",
    "version": "0.4.24+commit.e67f0147.Emscripten.clang"
  },
  "schemaVersion": "2.0.1",
  "updatedAt": "2018-11-01T13:52:10.343Z"
}