{
  "contractName": "Quiz",
  "abi": [
    {
      "constant": true,
      "inputs": [],
      "name": "quizFee",
      "outputs": [
        {
          "name": "",
          "type": "uint256"
        }
      ],
      "payable": false,
      "stateMutability": "view",
      "type": "function"
    },
    {
      "constant": true,
      "inputs": [],
      "name": "totPlayers",
      "outputs": [
        {
          "name": "",
          "type": "uint256"
        }
      ],
      "payable": false,
      "stateMutability": "view",
      "type": "function"
    },
    {
      "constant": true,
      "inputs": [
        {
          "name": "",
          "type": "address"
        }
      ],
      "name": "isValid",
      "outputs": [
        {
          "name": "",
          "type": "bool"
        }
      ],
      "payable": false,
      "stateMutability": "view",
      "type": "function"
    },
    {
      "constant": true,
      "inputs": [],
      "name": "owner",
      "outputs": [
        {
          "name": "",
          "type": "address"
        }
      ],
      "payable": false,
      "stateMutability": "view",
      "type": "function"
    },
    {
      "constant": true,
      "inputs": [],
      "name": "numPlayers",
      "outputs": [
        {
          "name": "",
          "type": "uint256"
        }
      ],
      "payable": false,
      "stateMutability": "view",
      "type": "function"
    },
    {
      "inputs": [
        {
          "name": "_n",
          "type": "uint256"
        },
        {
          "name": "_jointime",
          "type": "uint256"
        },
        {
          "name": "_quiztime",
          "type": "uint256"
        },
        {
          "name": "_fee",
          "type": "uint256"
        },
        {
          "name": "_secret",
          "type": "bytes32"
        },
        {
          "name": "_key",
          "type": "uint256[4]"
        }
      ],
      "payable": false,
      "stateMutability": "nonpayable",
      "type": "constructor"
    },
    {
      "anonymous": false,
      "inputs": [
        {
          "indexed": false,
          "name": "sender",
          "type": "address"
        },
        {
          "indexed": false,
          "name": "amount",
          "type": "uint256"
        }
      ],
      "name": "Collected",
      "type": "event"
    },
    {
      "constant": false,
      "inputs": [],
      "name": "joinQuiz",
      "outputs": [],
      "payable": true,
      "stateMutability": "payable",
      "type": "function"
    },
    {
      "constant": true,
      "inputs": [],
      "name": "startQuiz",
      "outputs": [
        {
          "name": "",
          "type": "string"
        },
        {
          "name": "",
          "type": "string"
        },
        {
          "name": "",
          "type": "string"
        },
        {
          "name": "",
          "type": "string"
        }
      ],
      "payable": false,
      "stateMutability": "view",
      "type": "function"
    },
    {
      "constant": false,
      "inputs": [
        {
          "name": "_sol",
          "type": "uint256[4]"
        }
      ],
      "name": "endQuiz",
      "outputs": [],
      "payable": false,
      "stateMutability": "nonpayable",
      "type": "function"
    },
    {
      "constant": false,
      "inputs": [],
      "name": "getWinners",
      "outputs": [],
      "payable": false,
      "stateMutability": "nonpayable",
      "type": "function"
    }
  ],
  "bytecode": "0x60806040523480156200001157600080fd5b506040516101208062001b79833981018060405281019080805190602001909291908051906020019092919080519060200190929190805190602001909291908051906020019092919091905050600083118015620000705750600086115b80156200007d5750600085115b80156200008a5750600084115b1515620000ff576040517f08c379a00000000000000000000000000000000000000000000000000000000081526004018080602001828103825260188152602001807f696e76616c696420696e7075747320746f206465706c6f79000000000000000081525060200191505060405180910390fd5b336000806101000a81548173ffffffffffffffffffffffffffffffffffffffff021916908373ffffffffffffffffffffffffffffffffffffffff160217905550856002819055508260038190555081600e816000191690555084420160048190555083600454016005819055506040805190810160405280601581526020017f57686174206973206120626c6f636b636861696e3f000000000000000000000081525060069080519060200190620001b9929190620005c0565b506040805190810160405280600d81526020017f57686174206973205554584f3f000000000000000000000000000000000000008152506007908051906020019062000207929190620005c0565b506040805190810160405280601481526020017f57686f206372656174656420426974636f696e3f0000000000000000000000008152506008908051906020019062000255929190620005c0565b506040805190810160405280601881526020017f5768617420646f657320503250207374616e6420666f723f000000000000000081525060099080519060200190620002a3929190620005c0565b50806000600481101515620002b457fe5b6020020151600e54604051602001808381526020018260001916600019168152602001925050506040516020818303038152906040526040518082805190602001908083835b602083101515620003215780518252602082019150602081019050602083039250620002fa565b6001836020036101000a0380198251168184511680821785525050505050509050019150506040518091039020600a60006004811015156200035f57fe5b0181600019169055508060016004811015156200037857fe5b6020020151600e54604051602001808381526020018260001916600019168152602001925050506040516020818303038152906040526040518082805190602001908083835b602083101515620003e55780518252602082019150602081019050602083039250620003be565b6001836020036101000a0380198251168184511680821785525050505050509050019150506040518091039020600a60016004811015156200042357fe5b0181600019169055508060026004811015156200043c57fe5b6020020151600e54604051602001808381526020018260001916600019168152602001925050506040516020818303038152906040526040518082805190602001908083835b602083101515620004a9578051825260208201915060208101905060208303925062000482565b6001836020036101000a0380198251168184511680821785525050505050509050019150506040518091039020600a6002600481101515620004e757fe5b0181600019169055508060036004811015156200050057fe5b6020020151600e54604051602001808381526020018260001916600019168152602001925050506040516020818303038152906040526040518082805190602001908083835b6020831015156200056d578051825260208201915060208101905060208303925062000546565b6001836020036101000a0380198251168184511680821785525050505050509050019150506040518091039020600a6003600481101515620005ab57fe5b0181600019169055505050505050506200066f565b828054600181600116156101000203166002900490600052602060002090601f016020900481019282601f106200060357805160ff191683800117855562000634565b8280016001018555821562000634579182015b828111156200063357825182559160200191906001019062000616565b5b50905062000643919062000647565b5090565b6200066c91905b80821115620006685760008160009055506001016200064e565b5090565b90565b6114fa806200067f6000396000f300608060405260043610610099576000357c0100000000000000000000000000000000000000000000000000000000900463ffffffff168063378c14311461009e57806343a78ffa146100c95780634c3415e6146100f457806374992aba146102c85780638b1b925f1461031a5780638da5cb5b1461037557806397b2f556146103cc5780639ec1148e146103f7578063df15c37e14610401575b600080fd5b3480156100aa57600080fd5b506100b3610418565b6040518082815260200191505060405180910390f35b3480156100d557600080fd5b506100de61041e565b6040518082815260200191505060405180910390f35b34801561010057600080fd5b50610109610424565b6040518080602001806020018060200180602001858103855289818151815260200191508051906020019080838360005b8381101561015557808201518184015260208101905061013a565b50505050905090810190601f1680156101825780820380516001836020036101000a031916815260200191505b50858103845288818151815260200191508051906020019080838360005b838110156101bb5780820151818401526020810190506101a0565b50505050905090810190601f1680156101e85780820380516001836020036101000a031916815260200191505b50858103835287818151815260200191508051906020019080838360005b83811015610221578082015181840152602081019050610206565b50505050905090810190601f16801561024e5780820380516001836020036101000a031916815260200191505b50858103825286818151815260200191508051906020019080838360005b8381101561028757808201518184015260208101905061026c565b50505050905090810190601f1680156102b45780820380516001836020036101000a031916815260200191505b509850505050505050505060405180910390f35b3480156102d457600080fd5b5061031860048036038101908080608001906004806020026040519081016040528092919082600460200280828437820191505050505091929192905050506107fe565b005b34801561032657600080fd5b5061035b600480360381019080803573ffffffffffffffffffffffffffffffffffffffff169060200190929190505050610b05565b604051808215151515815260200191505060405180910390f35b34801561038157600080fd5b5061038a610b25565b604051808273ffffffffffffffffffffffffffffffffffffffff1673ffffffffffffffffffffffffffffffffffffffff16815260200191505060405180910390f35b3480156103d857600080fd5b506103e1610b4a565b6040518082815260200191505060405180910390f35b6103ff610b50565b005b34801561040d57600080fd5b50610416610ed7565b005b60035481565b60025481565b6060806060806004544211801561043c575060055442105b15156104b0576040517f08c379a00000000000000000000000000000000000000000000000000000000081526004018080602001828103825260108152602001807f43616e6e6f74207374617274206e6f770000000000000000000000000000000081525060200191505060405180910390fd5b60011515601260003373ffffffffffffffffffffffffffffffffffffffff1673ffffffffffffffffffffffffffffffffffffffff16815260200190815260200160002060009054906101000a900460ff161515141515610578576040517f08c379a00000000000000000000000000000000000000000000000000000000081526004018080602001828103825260158152602001807f596f752063616e6e6f74207374617274207175697a000000000000000000000081525060200191505060405180910390fd5b6006600760086009838054600181600116156101000203166002900480601f0160208091040260200160405190810160405280929190818152602001828054600181600116156101000203166002900480156106155780601f106105ea57610100808354040283529160200191610615565b820191906000526020600020905b8154815290600101906020018083116105f857829003601f168201915b50505050509350828054600181600116156101000203166002900480601f0160208091040260200160405190810160405280929190818152602001828054600181600116156101000203166002900480156106b15780601f10610686576101008083540402835291602001916106b1565b820191906000526020600020905b81548152906001019060200180831161069457829003601f168201915b50505050509250818054600181600116156101000203166002900480601f01602080910402602001604051908101604052809291908181526020018280546001816001161561010002031660029004801561074d5780601f106107225761010080835404028352916020019161074d565b820191906000526020600020905b81548152906001019060200180831161073057829003601f168201915b50505050509150808054600181600116156101000203166002900480601f0160208091040260200160405190810160405280929190818152602001828054600181600116156101000203166002900480156107e95780601f106107be576101008083540402835291602001916107e9565b820191906000526020600020905b8154815290600101906020018083116107cc57829003601f168201915b50505050509050935093509350935090919293565b600060045442111515610879576040517f08c379a000000000000000000000000000000000000000000000000000000000815260040180806020018281038252600e8152602001807f43616e6e6f7420656e64206e6f7700000000000000000000000000000000000081525060200191505060405180910390fd5b600554421015156108f2576040517f08c379a00000000000000000000000000000000000000000000000000000000081526004018080602001828103825260078152602001807f54696d652075700000000000000000000000000000000000000000000000000081525060200191505060405180910390fd5b60011515601260003373ffffffffffffffffffffffffffffffffffffffff1673ffffffffffffffffffffffffffffffffffffffff16815260200190815260200160002060009054906101000a900460ff1615151415156109ba576040517f08c379a00000000000000000000000000000000000000000000000000000000081526004018080602001828103825260138152602001807f43616e6e6f74207375626d69742074776963650000000000000000000000000081525060200191505060405180910390fd5b6000601260003373ffffffffffffffffffffffffffffffffffffffff1673ffffffffffffffffffffffffffffffffffffffff16815260200190815260200160002060006101000a81548160ff021916908315150217905550600090505b6004811015610aa7578181600481101515610a2e57fe5b602002015160106000601160003373ffffffffffffffffffffffffffffffffffffffff1673ffffffffffffffffffffffffffffffffffffffff16815260200190815260200160002054815260200190815260200160002060010182600481101515610a9557fe5b01819055508080600101915050610a17565b4260106000601160003373ffffffffffffffffffffffffffffffffffffffff1673ffffffffffffffffffffffffffffffffffffffff168152602001908152602001600020548152602001908152602001600020600501819055505050565b60126020528060005260406000206000915054906101000a900460ff1681565b6000809054906101000a900473ffffffffffffffffffffffffffffffffffffffff1681565b60015481565b600254600154101515610bcb576040517f08c379a00000000000000000000000000000000000000000000000000000000081526004018080602001828103825260158152602001807f506c61796572206c696d6974206578636565646564000000000000000000000081525060200191505060405180910390fd5b6003543410151515610c45576040517f08c379a00000000000000000000000000000000000000000000000000000000081526004018080602001828103825260108152602001807f496e73756666696369656e74206665650000000000000000000000000000000081525060200191505060405180910390fd5b60001515601260003373ffffffffffffffffffffffffffffffffffffffff1673ffffffffffffffffffffffffffffffffffffffff16815260200190815260200160002060009054906101000a900460ff161515141515610d0d576040517f08c379a000000000000000000000000000000000000000000000000000000000815260040180806020018281038252600f8152602001807f496e76616c69642061646472657373000000000000000000000000000000000081525060200191505060405180910390fd5b60045442101515610d86576040517f08c379a00000000000000000000000000000000000000000000000000000000081526004018080602001828103825260188152602001807f54696d6520757020666f72206a6f696e696e67207175697a000000000000000081525060200191505060405180910390fd5b600160008154809291906001019190505550600154601160003373ffffffffffffffffffffffffffffffffffffffff1673ffffffffffffffffffffffffffffffffffffffff168152602001908152602001600020819055506001601260003373ffffffffffffffffffffffffffffffffffffffff1673ffffffffffffffffffffffffffffffffffffffff16815260200190815260200160002060006101000a81548160ff0219169083151502179055503360106000600154815260200190815260200160002060000160006101000a81548173ffffffffffffffffffffffffffffffffffffffff021916908373ffffffffffffffffffffffffffffffffffffffff1602179055506003543403600f60003373ffffffffffffffffffffffffffffffffffffffff1673ffffffffffffffffffffffffffffffffffffffff16815260200190815260200160002081905550565b6000806000806000806000809054906101000a900473ffffffffffffffffffffffffffffffffffffffff1673ffffffffffffffffffffffffffffffffffffffff163373ffffffffffffffffffffffffffffffffffffffff16141515610fca576040517f08c379a00000000000000000000000000000000000000000000000000000000081526004018080602001828103825260298152602001807f4f6e6c79206f776e657220697320616c6c6f77656420746f2063616c6c20746881526020017f6973206d6574686f64000000000000000000000000000000000000000000000081525060400191505060405180910390fd5b60055442111515611043576040517f08c379a00000000000000000000000000000000000000000000000000000000081526004018080602001828103825260118152602001807f5175697a20646964206e6f7420656e642000000000000000000000000000000081525060200191505060405180910390fd5b60009550600094505b600485101561125c577fffffffffffffffffffffffffffffffffffffffffffffffffffffffffffffffff9350600192505b600154831115156111aa5760106000848152602001908152602001600020600101856004811015156110ab57fe5b0154600e54604051602001808381526020018260001916600019168152602001925050506040516020818303038152906040526040518082805190602001908083835b60208310151561111357805182526020820191506020810190506020830392506110ee565b6001836020036101000a038019825116818451168082178552505050505050905001915050604051809103902060001916600a8660048110151561115357fe5b01546000191614801561117b5750836010600085815260200190815260200160002060050154105b1561119d57601060008481526020019081526020016000206005015493508295505b828060010193505061107d565b600086111561124f576010600154600354600302028115156111c857fe5b04915081600f6000601060008a815260200190815260200160002060000160009054906101000a900473ffffffffffffffffffffffffffffffffffffffff1673ffffffffffffffffffffffffffffffffffffffff1673ffffffffffffffffffffffffffffffffffffffff168152602001908152602001600020600082825401925050819055505b848060010195505061104c565b600194505b6001548511151561149457600f60006010600088815260200190815260200160002060000160009054906101000a900473ffffffffffffffffffffffffffffffffffffffff1673ffffffffffffffffffffffffffffffffffffffff1673ffffffffffffffffffffffffffffffffffffffff1681526020019081526020016000205490507f8c22f554c81b54107cd95e734e4ef45767214974a540f34ea4a4f8c3fc7b13c36010600087815260200190815260200160002060000160009054906101000a900473ffffffffffffffffffffffffffffffffffffffff1682604051808373ffffffffffffffffffffffffffffffffffffffff1673ffffffffffffffffffffffffffffffffffffffff1681526020018281526020019250505060405180910390a16000811115611487576000600f60006010600089815260200190815260200160002060000160009054906101000a900473ffffffffffffffffffffffffffffffffffffffff1673ffffffffffffffffffffffffffffffffffffffff1673ffffffffffffffffffffffffffffffffffffffff168152602001908152602001600020819055506010600086815260200190815260200160002060000160009054906101000a900473ffffffffffffffffffffffffffffffffffffffff1673ffffffffffffffffffffffffffffffffffffffff166108fc829081150290604051600060405180830381858888f19350505050158015611485573d6000803e3d6000fd5b505b8480600101955050611261565b6000809054906101000a900473ffffffffffffffffffffffffffffffffffffffff1673ffffffffffffffffffffffffffffffffffffffff16ff00a165627a7a72305820ca9cae5df237f8e7de8e4d80c77ae5c685b2ddbf308e4efae87a6716bdf2be8d0029",
  "source": "pragma solidity ^0.4.23;\n\ncontract Quiz {\n  \n  address public owner;\n  uint public numPlayers;\n  uint public totPlayers;\n  uint public quizFee;\n  uint endJoinTime;\n  uint endQuiztime;\n  string question1;\n  string question2;\n  string question3;\n  string question4;\n  bytes32[4] answers;\n  bytes32 secret;\n  \n  struct Player{\n    address account;\n    uint[4] choice;\n    uint timestamp;\n  }\n  \n  mapping (address => uint) pendingAmount;\n  mapping (uint => Player) Players;\n  mapping (address => uint) playerIndex;\n  mapping (address => bool) public isValid;\n  \n  event Collected(address sender,uint amount);\n  \n  constructor(uint _n,uint _jointime,uint _quiztime,uint _fee,bytes32 _secret,uint[4] _key) public {\n      \n      require (_fee > 0 && _n>0 && _jointime >0 && _quiztime >0,\"invalid inputs to deploy\");\n      \n      owner = msg.sender;\n      totPlayers = _n;\n      quizFee = _fee;\n      secret = _secret;\n      endJoinTime = now + _jointime;\n      endQuiztime = endJoinTime + _quiztime;\n      //can send questions as arguments\n      question1 = \"What is a blockchain?\";\n      question2 = \"What is UTXO?\";\n      question3 = \"Who created Bitcoin?\";\n      question4 = \"What does P2P stand for?\";\n      answers[0] = keccak256(abi.encodePacked(_key[0],secret));\n      answers[1] = keccak256(abi.encodePacked(_key[1],secret));\n      answers[2] = keccak256(abi.encodePacked(_key[2],secret));\n      answers[3] = keccak256(abi.encodePacked(_key[3],secret));\n  }\n  \n  modifier onlyOwner() {\n    require(msg.sender == owner,\"Only owner is allowed to call this method\"); _;\n  }\n\n  function joinQuiz() public payable {\n    require(numPlayers < totPlayers,\"Player limit exceeded\");\n    require(msg.value >= quizFee,\"Insufficient fee\");\n    require (isValid[msg.sender]==false,\"Invalid address\");\n    require (now < endJoinTime,\"Time up for joining quiz\");\n\n    numPlayers++;\n    playerIndex[msg.sender] = numPlayers;\n    isValid[msg.sender]=true;\n    Players[numPlayers].account = msg.sender;\n    pendingAmount[msg.sender] = msg.value - quizFee;\n  }\n\n  function startQuiz () public constant returns(string,string,string,string){\n    require (now > endJoinTime && now < endQuiztime,\"Cannot start now\");\n    require (isValid[msg.sender]==true,\"You cannot start quiz\");\n    \n    return (question1,question2,question3,question4);  \n  }\n  \n  function endQuiz (uint[4] _sol) public {\n\n    require (now > endJoinTime ,\"Cannot end now\"); \n    require(now < endQuiztime,\"Time up\");\n    require (isValid[msg.sender]==true,\"Cannot submit twice\");\n\n    isValid[msg.sender]=false;\n    for(uint i=0;i<4;i++)\n        Players[playerIndex[msg.sender]].choice[i] = _sol[i];\n    Players[playerIndex[msg.sender]].timestamp = now;    \n  }\n  \n  function getWinners() public onlyOwner  {\n    require (now > endQuiztime,'Quiz did not end ');\n    //calculate winner for each ques based on timestamp and add prize\n    uint winner = 0;\n    uint i;\n    for( i=0;i<4;i++){\n        uint prev = 2**256 - 1;\n        for(uint j=1;j<=numPlayers;j++){\n           \n            if(answers[i] == keccak256(abi.encodePacked(Players[j].choice[i],secret)) && Players[j].timestamp < prev){\n              prev = Players[j].timestamp;\n              winner = j;\n            }\n        }\n         if(winner > 0){\n         uint prize = (3*quizFee*numPlayers)/16;\n         pendingAmount[Players[winner].account] += prize;\n       }\n    }\n    //transfer remaining pending balance to them\n    for( i=1;i<=numPlayers;i++){\n      uint amount = pendingAmount[Players[i].account];\n      emit Collected(Players[i].account,amount);\n      \n      if(amount > 0){\n        pendingAmount[Players[i].account] = 0;\n        Players[i].account.transfer(amount);\n      }\n    }\n    // send contract balance to owner;\n    selfdestruct(owner);\n  }\n  \n  \n}\n",
  "sourcePath": "/home/vishal/blockchains/quiz-app-solidity/contracts/Quiz.sol",
  "compiler": {
    "name": "solc",
    "version": "0.4.24+commit.e67f0147.Emscripten.clang"
  },
  "schemaVersion": "2.0.1",
  "updatedAt": "2018-11-01T10:47:11.537Z"
}