{
  "contractName": "Quiz",
  "abi": [
    {
      "constant": true,
      "inputs": [],
      "name": "question1",
      "outputs": [
        {
          "name": "",
          "type": "string"
        }
      ],
      "payable": false,
      "stateMutability": "view",
      "type": "function"
    },
    {
      "constant": true,
      "inputs": [
        {
          "name": "",
          "type": "uint256"
        }
      ],
      "name": "answers",
      "outputs": [
        {
          "name": "",
          "type": "uint256"
        }
      ],
      "payable": false,
      "stateMutability": "view",
      "type": "function"
    },
    {
      "constant": true,
      "inputs": [],
      "name": "question2",
      "outputs": [
        {
          "name": "",
          "type": "string"
        }
      ],
      "payable": false,
      "stateMutability": "view",
      "type": "function"
    },
    {
      "constant": true,
      "inputs": [],
      "name": "question3",
      "outputs": [
        {
          "name": "",
          "type": "string"
        }
      ],
      "payable": false,
      "stateMutability": "view",
      "type": "function"
    },
    {
      "constant": true,
      "inputs": [],
      "name": "quizFee",
      "outputs": [
        {
          "name": "",
          "type": "uint256"
        }
      ],
      "payable": false,
      "stateMutability": "view",
      "type": "function"
    },
    {
      "constant": true,
      "inputs": [],
      "name": "totPlayers",
      "outputs": [
        {
          "name": "",
          "type": "uint256"
        }
      ],
      "payable": false,
      "stateMutability": "view",
      "type": "function"
    },
    {
      "constant": true,
      "inputs": [
        {
          "name": "",
          "type": "address"
        }
      ],
      "name": "isValid",
      "outputs": [
        {
          "name": "",
          "type": "bool"
        }
      ],
      "payable": false,
      "stateMutability": "view",
      "type": "function"
    },
    {
      "constant": true,
      "inputs": [],
      "name": "owner",
      "outputs": [
        {
          "name": "",
          "type": "address"
        }
      ],
      "payable": false,
      "stateMutability": "view",
      "type": "function"
    },
    {
      "constant": true,
      "inputs": [],
      "name": "numPlayers",
      "outputs": [
        {
          "name": "",
          "type": "uint256"
        }
      ],
      "payable": false,
      "stateMutability": "view",
      "type": "function"
    },
    {
      "constant": true,
      "inputs": [],
      "name": "question4",
      "outputs": [
        {
          "name": "",
          "type": "string"
        }
      ],
      "payable": false,
      "stateMutability": "view",
      "type": "function"
    },
    {
      "inputs": [
        {
          "name": "_n",
          "type": "uint256"
        },
        {
          "name": "_jointime",
          "type": "uint256"
        },
        {
          "name": "_quiztime",
          "type": "uint256"
        },
        {
          "name": "_fee",
          "type": "uint256"
        }
      ],
      "payable": false,
      "stateMutability": "nonpayable",
      "type": "constructor"
    },
    {
      "anonymous": false,
      "inputs": [
        {
          "indexed": false,
          "name": "sender",
          "type": "address"
        },
        {
          "indexed": false,
          "name": "amount",
          "type": "uint256"
        }
      ],
      "name": "Collected",
      "type": "event"
    },
    {
      "constant": false,
      "inputs": [],
      "name": "joinQuiz",
      "outputs": [],
      "payable": true,
      "stateMutability": "payable",
      "type": "function"
    },
    {
      "constant": true,
      "inputs": [],
      "name": "startQuiz",
      "outputs": [
        {
          "name": "",
          "type": "string"
        },
        {
          "name": "",
          "type": "string"
        },
        {
          "name": "",
          "type": "string"
        },
        {
          "name": "",
          "type": "string"
        }
      ],
      "payable": false,
      "stateMutability": "view",
      "type": "function"
    },
    {
      "constant": false,
      "inputs": [
        {
          "name": "_sol",
          "type": "uint256[4]"
        }
      ],
      "name": "endQuiz",
      "outputs": [],
      "payable": false,
      "stateMutability": "nonpayable",
      "type": "function"
    },
    {
      "constant": false,
      "inputs": [],
      "name": "getWinners",
      "outputs": [],
      "payable": true,
      "stateMutability": "payable",
      "type": "function"
    }
  ],
  "bytecode": "0x60806040523480156200001157600080fd5b506040516080806200198c83398101806040528101908080519060200190929190805190602001909291908051906020019092919080519060200190929190505050336000806101000a81548173ffffffffffffffffffffffffffffffffffffffff021916908373ffffffffffffffffffffffffffffffffffffffff160217905550836002819055508060038190555082420160048190555081600454016005819055506040805190810160405280601581526020017f57686174206973206120626c6f636b636861696e3f0000000000000000000000815250600690805190602001906200010292919062000257565b506040805190810160405280600d81526020017f57686174206973205554584f3f00000000000000000000000000000000000000815250600790805190602001906200015092919062000257565b506040805190810160405280601481526020017f57686f206372656174656420426974636f696e3f000000000000000000000000815250600890805190602001906200019e92919062000257565b506040805190810160405280601881526020017f5768617420646f657320503250207374616e6420666f723f000000000000000081525060099080519060200190620001ec92919062000257565b506001600a60006004811015156200020057fe5b01819055506002600a60016004811015156200021857fe5b01819055506003600a60026004811015156200023057fe5b01819055506004600a60036004811015156200024857fe5b01819055505050505062000306565b828054600181600116156101000203166002900490600052602060002090601f016020900481019282601f106200029a57805160ff1916838001178555620002cb565b82800160010185558215620002cb579182015b82811115620002ca578251825591602001919060010190620002ad565b5b509050620002da9190620002de565b5090565b6200030391905b80821115620002ff576000816000905550600101620002e5565b5090565b90565b61167680620003166000396000f3006080604052600436106100d0576000357c0100000000000000000000000000000000000000000000000000000000900463ffffffff16806310cd83c0146100d557806317599cc51461016557806333d1c2fc146101a657806336f4a00614610236578063378c1431146102c657806343a78ffa146102f15780634c3415e61461031c57806374992aba146104f05780638b1b925f146105425780638da5cb5b1461059d57806397b2f556146105f45780639ec1148e1461061f578063df15c37e14610629578063efe47c8114610633575b600080fd5b3480156100e157600080fd5b506100ea6106c3565b6040518080602001828103825283818151815260200191508051906020019080838360005b8381101561012a57808201518184015260208101905061010f565b50505050905090810190601f1680156101575780820380516001836020036101000a031916815260200191505b509250505060405180910390f35b34801561017157600080fd5b5061019060048036038101908080359060200190929190505050610761565b6040518082815260200191505060405180910390f35b3480156101b257600080fd5b506101bb61077b565b6040518080602001828103825283818151815260200191508051906020019080838360005b838110156101fb5780820151818401526020810190506101e0565b50505050905090810190601f1680156102285780820380516001836020036101000a031916815260200191505b509250505060405180910390f35b34801561024257600080fd5b5061024b610819565b6040518080602001828103825283818151815260200191508051906020019080838360005b8381101561028b578082015181840152602081019050610270565b50505050905090810190601f1680156102b85780820380516001836020036101000a031916815260200191505b509250505060405180910390f35b3480156102d257600080fd5b506102db6108b7565b6040518082815260200191505060405180910390f35b3480156102fd57600080fd5b506103066108bd565b6040518082815260200191505060405180910390f35b34801561032857600080fd5b506103316108c3565b6040518080602001806020018060200180602001858103855289818151815260200191508051906020019080838360005b8381101561037d578082015181840152602081019050610362565b50505050905090810190601f1680156103aa5780820380516001836020036101000a031916815260200191505b50858103845288818151815260200191508051906020019080838360005b838110156103e35780820151818401526020810190506103c8565b50505050905090810190601f1680156104105780820380516001836020036101000a031916815260200191505b50858103835287818151815260200191508051906020019080838360005b8381101561044957808201518184015260208101905061042e565b50505050905090810190601f1680156104765780820380516001836020036101000a031916815260200191505b50858103825286818151815260200191508051906020019080838360005b838110156104af578082015181840152602081019050610494565b50505050905090810190601f1680156104dc5780820380516001836020036101000a031916815260200191505b509850505050505050505060405180910390f35b3480156104fc57600080fd5b506105406004803603810190808060800190600480602002604051908101604052809291908260046020028082843782019150505050509192919290505050610bd5565b005b34801561054e57600080fd5b50610583600480360381019080803573ffffffffffffffffffffffffffffffffffffffff169060200190929190505050610d50565b604051808215151515815260200191505060405180910390f35b3480156105a957600080fd5b506105b2610d70565b604051808273ffffffffffffffffffffffffffffffffffffffff1673ffffffffffffffffffffffffffffffffffffffff16815260200191505060405180910390f35b34801561060057600080fd5b50610609610d95565b6040518082815260200191505060405180910390f35b610627610d9b565b005b6106316110b9565b005b34801561063f57600080fd5b506106486115ac565b6040518080602001828103825283818151815260200191508051906020019080838360005b8381101561068857808201518184015260208101905061066d565b50505050905090810190601f1680156106b55780820380516001836020036101000a031916815260200191505b509250505060405180910390f35b60068054600181600116156101000203166002900480601f0160208091040260200160405190810160405280929190818152602001828054600181600116156101000203166002900480156107595780601f1061072e57610100808354040283529160200191610759565b820191906000526020600020905b81548152906001019060200180831161073c57829003601f168201915b505050505081565b600a8160048110151561077057fe5b016000915090505481565b60078054600181600116156101000203166002900480601f0160208091040260200160405190810160405280929190818152602001828054600181600116156101000203166002900480156108115780601f106107e657610100808354040283529160200191610811565b820191906000526020600020905b8154815290600101906020018083116107f457829003601f168201915b505050505081565b60088054600181600116156101000203166002900480601f0160208091040260200160405190810160405280929190818152602001828054600181600116156101000203166002900480156108af5780601f10610884576101008083540402835291602001916108af565b820191906000526020600020905b81548152906001019060200180831161089257829003601f168201915b505050505081565b60035481565b60025481565b606080606080600454421180156108db575060055442105b151561094f576040517f08c379a00000000000000000000000000000000000000000000000000000000081526004018080602001828103825260108152602001807f43616e6e6f74207374617274206e6f770000000000000000000000000000000081525060200191505060405180910390fd5b6006600760086009838054600181600116156101000203166002900480601f0160208091040260200160405190810160405280929190818152602001828054600181600116156101000203166002900480156109ec5780601f106109c1576101008083540402835291602001916109ec565b820191906000526020600020905b8154815290600101906020018083116109cf57829003601f168201915b50505050509350828054600181600116156101000203166002900480601f016020809104026020016040519081016040528092919081815260200182805460018160011615610100020316600290048015610a885780601f10610a5d57610100808354040283529160200191610a88565b820191906000526020600020905b815481529060010190602001808311610a6b57829003601f168201915b50505050509250818054600181600116156101000203166002900480601f016020809104026020016040519081016040528092919081815260200182805460018160011615610100020316600290048015610b245780601f10610af957610100808354040283529160200191610b24565b820191906000526020600020905b815481529060010190602001808311610b0757829003601f168201915b50505050509150808054600181600116156101000203166002900480601f016020809104026020016040519081016040528092919081815260200182805460018160011615610100020316600290048015610bc05780601f10610b9557610100808354040283529160200191610bc0565b820191906000526020600020905b815481529060010190602001808311610ba357829003601f168201915b50505050509050935093509350935090919293565b600060045442118015610be9575060055442105b1515610c5d576040517f08c379a00000000000000000000000000000000000000000000000000000000081526004018080602001828103825260078152602001807f54696d652075700000000000000000000000000000000000000000000000000081525060200191505060405180910390fd5b600090505b6004811015610cf2578181600481101515610c7957fe5b6020020151600f6000601060003373ffffffffffffffffffffffffffffffffffffffff1673ffffffffffffffffffffffffffffffffffffffff16815260200190815260200160002054815260200190815260200160002060010182600481101515610ce057fe5b01819055508080600101915050610c62565b42600f6000601060003373ffffffffffffffffffffffffffffffffffffffff1673ffffffffffffffffffffffffffffffffffffffff168152602001908152602001600020548152602001908152602001600020600601819055505050565b60116020528060005260406000206000915054906101000a900460ff1681565b6000809054906101000a900473ffffffffffffffffffffffffffffffffffffffff1681565b60015481565b600254600154101515610e16576040517f08c379a00000000000000000000000000000000000000000000000000000000081526004018080602001828103825260158152602001807f506c61796572206c696d6974206578636565646564000000000000000000000081525060200191505060405180910390fd5b6003543410151515610e90576040517f08c379a00000000000000000000000000000000000000000000000000000000081526004018080602001828103825260108152602001807f496e73756666696369656e74206665650000000000000000000000000000000081525060200191505060405180910390fd5b60001515601160003373ffffffffffffffffffffffffffffffffffffffff1673ffffffffffffffffffffffffffffffffffffffff16815260200190815260200160002060009054906101000a900460ff161515141515610eef57600080fd5b60045442101515610f68576040517f08c379a00000000000000000000000000000000000000000000000000000000081526004018080602001828103825260188152602001807f54696d6520757020666f72206a6f696e696e67207175697a000000000000000081525060200191505060405180910390fd5b600160008154809291906001019190505550600154601060003373ffffffffffffffffffffffffffffffffffffffff1673ffffffffffffffffffffffffffffffffffffffff168152602001908152602001600020819055506001601160003373ffffffffffffffffffffffffffffffffffffffff1673ffffffffffffffffffffffffffffffffffffffff16815260200190815260200160002060006101000a81548160ff02191690831515021790555033600f6000600154815260200190815260200160002060000160006101000a81548173ffffffffffffffffffffffffffffffffffffffff021916908373ffffffffffffffffffffffffffffffffffffffff1602179055506003543403600e60003373ffffffffffffffffffffffffffffffffffffffff1673ffffffffffffffffffffffffffffffffffffffff16815260200190815260200160002081905550565b6000806000806000806000809054906101000a900473ffffffffffffffffffffffffffffffffffffffff1673ffffffffffffffffffffffffffffffffffffffff163373ffffffffffffffffffffffffffffffffffffffff161415156111ac576040517f08c379a00000000000000000000000000000000000000000000000000000000081526004018080602001828103825260298152602001807f4f6e6c79206f776e657220697320616c6c6f77656420746f2063616c6c20746881526020017f6973206d6574686f64000000000000000000000000000000000000000000000081525060400191505060405180910390fd5b600554421115156111bc57600080fd5b60009550600094505b600485101561133a577fffffffffffffffffffffffffffffffffffffffffffffffffffffffffffffffff9350600192505b6001548311151561128857600a8560048110151561121057fe5b0154600f60008581526020019081526020016000206001018660048110151561123557fe5b0154148015611259575083600f600085815260200190815260200160002060060154105b1561127b57600f60008481526020019081526020016000206006015493508295505b82806001019350506111f6565b600086111561132d576010600154600354600302028115156112a657fe5b04915081600e6000600f60008a815260200190815260200160002060000160009054906101000a900473ffffffffffffffffffffffffffffffffffffffff1673ffffffffffffffffffffffffffffffffffffffff1673ffffffffffffffffffffffffffffffffffffffff168152602001908152602001600020600082825401925050819055505b84806001019550506111c5565b600194505b6001548511151561157257600e6000600f600088815260200190815260200160002060000160009054906101000a900473ffffffffffffffffffffffffffffffffffffffff1673ffffffffffffffffffffffffffffffffffffffff1673ffffffffffffffffffffffffffffffffffffffff1681526020019081526020016000205490507f8c22f554c81b54107cd95e734e4ef45767214974a540f34ea4a4f8c3fc7b13c3600f600087815260200190815260200160002060000160009054906101000a900473ffffffffffffffffffffffffffffffffffffffff1682604051808373ffffffffffffffffffffffffffffffffffffffff1673ffffffffffffffffffffffffffffffffffffffff1681526020018281526020019250505060405180910390a16000811115611565576000600e6000600f600089815260200190815260200160002060000160009054906101000a900473ffffffffffffffffffffffffffffffffffffffff1673ffffffffffffffffffffffffffffffffffffffff1673ffffffffffffffffffffffffffffffffffffffff16815260200190815260200160002081905550600f600086815260200190815260200160002060000160009054906101000a900473ffffffffffffffffffffffffffffffffffffffff1673ffffffffffffffffffffffffffffffffffffffff166108fc829081150290604051600060405180830381858888f19350505050158015611563573d6000803e3d6000fd5b505b848060010195505061133f565b6000809054906101000a900473ffffffffffffffffffffffffffffffffffffffff1673ffffffffffffffffffffffffffffffffffffffff16ff5b60098054600181600116156101000203166002900480601f0160208091040260200160405190810160405280929190818152602001828054600181600116156101000203166002900480156116425780601f1061161757610100808354040283529160200191611642565b820191906000526020600020905b81548152906001019060200180831161162557829003601f168201915b5050505050815600a165627a7a72305820f7ae27dbe163aec2b292c668d3632b82c04609d24be8e45598bd77a8fd4447110029",
  "source": "pragma solidity ^0.4.23;\n\ncontract Quiz {\n  \n  address public owner;\n  uint public numPlayers;\n  uint public totPlayers;\n  uint public quizFee;\n  uint endJoinTime;\n  uint endQuiztime;\n  string public question1;\n  string public question2;\n  string public question3;\n  string public question4;\n  uint[4] public answers;\n  \n  struct Player{\n    address account;\n    uint[4] choice;\n    uint prize;\n    uint timestamp;\n  }\n  \n  mapping (address => uint) pendingAmount;\n  mapping (uint => Player) Players;\n  mapping (address => uint) playerIndex;\n  mapping (address => bool) public isValid;\n  \n  event Collected(address sender,uint amount);\n\n  \n  constructor(uint _n,uint _jointime,uint _quiztime,uint _fee) public {\n      owner = msg.sender;\n      totPlayers = _n;\n      quizFee = _fee;\n      endJoinTime = now + _jointime;\n      endQuiztime = endJoinTime + _quiztime;\n      question1 = \"What is a blockchain?\";\n      question2 = \"What is UTXO?\";\n      question3 = \"Who created Bitcoin?\";\n      question4 = \"What does P2P stand for?\";\n      answers[0] = 1;\n      answers[1] = 2;\n      answers[2] = 3;\n      answers[3] = 4;\n  }\n  \n  modifier onlyOwner() {\n    require(msg.sender == owner,\"Only owner is allowed to call this method\"); _;\n  }\n\n  function joinQuiz() public payable {\n    require(numPlayers < totPlayers,\"Player limit exceeded\");\n    require(msg.value >= quizFee,\"Insufficient fee\");\n    require (isValid[msg.sender]==false);\n    require (now < endJoinTime,\"Time up for joining quiz\");\n\n    numPlayers++;\n    playerIndex[msg.sender] = numPlayers;\n    isValid[msg.sender]=true;\n    Players[numPlayers].account = msg.sender;\n    pendingAmount[msg.sender] = msg.value - quizFee;\n  }\n  //think of ques to ques deadline(diif to implement) or whole deadline and process by timestamps of answers\n  //think of hashing ques and answers for privacy of ques and ans(dont know exactly)\n  function startQuiz () public constant returns(string,string,string,string){\n    require (now > endJoinTime && now < endQuiztime,\"Cannot start now\");\n    return (question1,question2,question3,question4);  \n  }\n  \n  function endQuiz (uint[4] _sol) public {\n\n    require (now > endJoinTime && now < endQuiztime,\"Time up\");\n    for(uint i=0;i<4;i++)\n        Players[playerIndex[msg.sender]].choice[i] = _sol[i];\n\n    Players[playerIndex[msg.sender]].timestamp = now;    \n  }\n  \n  function getWinners() public onlyOwner payable {\n    require (now > endQuiztime);\n    //calculate winner for each ques based on timestamp and add prize\n    uint winner = 0;\n    uint i;\n    for( i=0;i<4;i++){\n        uint prev = 2**256 - 1;\n        for(uint j=1;j<=numPlayers;j++){\n            if(Players[j].choice[i]==answers[i] && Players[j].timestamp < prev){\n              prev = Players[j].timestamp;\n              winner = j;\n            }\n        }\n         if(winner > 0){\n         uint prize = (3*quizFee*numPlayers)/16;\n         pendingAmount[Players[winner].account] += prize;\n       }\n    }\n    //transfer remaining pending balance to them\n    for( i=1;i<=numPlayers;i++){\n      uint amount = pendingAmount[Players[i].account];\n        emit Collected(Players[i].account,amount);\n      \n      if(amount > 0){\n        pendingAmount[Players[i].account] = 0;\n        Players[i].account.transfer(amount);\n      }\n    }\n    // send contract balance to owner;\n    selfdestruct(owner);\n  }\n  \n  \n}\n",
  "sourcePath": "/home/vishal/blockchains/quiz-app-solidity/contracts/Quiz.sol",
  "compiler": {
    "name": "solc",
    "version": "0.4.24+commit.e67f0147.Emscripten.clang"
  },
  "schemaVersion": "2.0.1",
  "updatedAt": "2018-10-27T13:59:14.965Z"
}